:020000040800F2
:10000000600400200D170008E9160008EB16000830
:10001000ED160008EF160008F116000800000000B9
:10002000000000000000000000000000F3160008BF
:10003000F516000800000000F7160008F916000881
:10004000391700083D170008411700084517000838
:10005000491700084D1700085117000855170008E8
:10006000591700085D170008611700086517000898
:10007000691700086D170008711700087517000848
:10008000791700087D1700088117000885170008F8
:10009000891700088D1700089117000895170008A8
:1000A000991700089D170008A1170008A517000858
:1000B000A9170008AD170008B1170008B517000808
:1000C000B9170008BD170008C1170008C5170008B8
:1000D000C9170008CD170008D1170008D517000868
:1000E000D9170008DD170008E1170008E517000818
:1000F000E9170008ED170008F1170008F5170008C8
:10010000F9170008FD170008011800080518000875
:10011000091800080D180008111800081518000823
:10012000191800081D1800082118000825180008D3
:10013000291800082D180008311800083518000883
:10014000391800083D180008411800084518000833
:10015000491800084D1800085118000855180008E3
:10016000591800085D180008611800086518000893
:10017000691800086D180008000000000000000069
:1001800071180008751800082DE9FC47050065D0B6
:10019000DFF87876DFF88466BC68F86800F003085A
:1001A0002878C10604F00C0448D524B10C2C08BFF3
:1001B000B8F1010F2CD13868810702D5A869002851
:1001C0004CD0396808074EBF396871680909286A38
:1001D00001F0F001814206D200F0DEFA00283DD1A4
:1001E00000F0F5F907E000F0F2F924B9286A00F010
:1001F000D3FA002832D100F086FABA6800F079FA12
:10020000DFF81006006800F01DFB010016D0D8E1F1
:10021000A86928B3396841F00101396000F034FB66
:1002200081463868810707D400F02EFBA0EB090057
:100230000328F6D30320C4E100F0C9F92878C107E8
:1002400056D5082C04D00C2C08BFB8F1030F18D1D8
:10025000386881034CD56868002849D10120B0E195
:10026000386840084000386000F00EFB814638686E
:100270008107E3D500F008FBA0EB09000328F6D3C3
:10028000D8E76868B0F5803F04D1386840F4803022
:10029000386011E0B0F5A02F386806D140F4802016
:1002A0003860396841F4803105E020F480303860EE
:1002B000396821F480213960686860B100F0E4FA9F
:1002C00081463868810313D400F0DEFAA0EB090000
:1002D0006528F6D3AEE700F0D7FA81463868810387
:1002E00006D500F0D1FAA0EB09006528F6D3A1E706
:1002F0002878810713D5042C04D00C2C08BFB8F142
:10030000020F22D13868410502D5E8680028A5D03F
:100310007868296920F0F85040EA01607860287810
:10032000010743D568690028706830D040F00100AB
:10033000706000F0A9FA80467068810736D400F03A
:10034000A3FA00F040F9F7D374E7E86878B13968A8
:1003500041F48071396000F097FA804638684105B1
:10036000D6D400F091FA00F02EF9F7D362E738689E
:1003700020F48070386000F087FA804638684105C4
:10038000CDD500F081FA00F01EF9F7D352E740080E
:100390004000706000F078FA80467068810705D5EB
:1003A00000F072FA00F00FF9F7D343E7287841071D
:1003B00067D5B86DC1004FF000080AD4B86D40F0A1
:1003C0008050B8654FF00108B86D00F08050009083
:1003D0000098DFF84C94D9F80000C10513D4D9F87F
:1003E000000040F48070C9F8000000F04DFA824629
:1003F000D9F80000C10506D400F046FAA0EB0A00C7
:100400000328F5D316E7A868012804D1306840F026
:100410000100306010E00528306806D140F004008B
:100420003060316841F0010105E040084000306073
:10043000316821F004013160A86841F2893960B166
:1004400000F022FA82463068810713D400F01CFACB
:10045000A0EB0A004845F6D3ECE600F015FA824618
:100460003068810706D500F00FFAA0EB0A00484576
:10047000F6D3DFE6B8F1000F03D0B86D20F080505E
:10048000B865A86A002800F09B80022878D1F86837
:10049000EA6A00F00301914201BF00F070012A6B8B
:1004A000521EB1EB021F1ED16A6B00F4FE41B1EB8C
:1004B000022F18D1A96B07290CBF0021012100F4DC
:1004C00000328A420FD1EA6B520800F4C001521E7A
:1004D000B1EB425F07D1296C490800F0C060491EAA
:1004E000B0EB416F48D00C2C4BD03868410101D49F
:1004F0003868C1003FF5B2AE386820F080703860CF
:1005000000F0C2F904463868810105D500F0BCF955
:10051000001B0328F7D38DE6F868DFF80813EA6AB2
:100520000840296B1043491E40EA0110EA6B696BD1
:10053000520840EA0120296C521E490840EA425004
:10054000491E40EA4160A96B090940EA4140F86050
:10055000386840F080703860F96841F08071F96067
:1005600000F092F904463868810129D400F08CF932
:10057000001B0328F7D35DE63868810120D4E7E744
:100580000C2C3FF46BAE386820F08070386039680E
:1005900011F0205F03D1F86880088000F860F968E6
:1005A000DFF884020140F96000F06EF90446386813
:1005B000810105D500F068F9001B0328F7D339E65F
:1005C0000020BDE8F687A0EB0800032870473868D4
:1005D00040F0080038603968286A21F0F0010143D2
:1005E00039607968E86921F47F4141EA0021796046
:1005F00070472DE9F0410400884658D0DFF82C629E
:10060000306800F00700404509D23168C90848EA5F
:10061000C1013160306800F00700404547D12078C3
:10062000DFF8E851C1072AD56068032802D129689C
:100630008A0108E0022802D129688A0303E0002821
:10064000296802D18A0702D431E04A052FD5A9686A
:10065000890840EA8100A86000F016F90746A868FA
:10066000616800F00C00B0EB810F08D000F00CF9CD
:10067000C01B41F289318842F1D3032037E0207852
:10068000810705D5AA68A06822F0F0020243AA609B
:10069000316801F0070188450BD23068C00848EA8C
:1006A000C0003060316801F00701414501D00120F0
:1006B0001DE02078410705D5AA68E06822F4E062D1
:1006C0000243AA602178080706D5A968206921F4A9
:1006D000605141EAC001A96000F015F8AA6800F075
:1006E00008F8BDE8F0414B48006800F0ABB8BDE841
:1006F000F0814F49C2F30312895C454A01F01F01A2
:10070000C8401060704770B5404A4A4B9068D66840
:100710000025002110F00C0006F00306464C03D023
:100720000C2812D1012E1AD115682E0704D43A4D87
:100730002E68C6F3032502E01568C5F303153F4E86
:1007400056F8255048B9294624E0042808BF214618
:1007500020D008281ED119461CE00C281AD1D068D8
:1007600000F00300022803D0032808BF1D4600E064
:100770002546D168D068D268C0F306204543C1F34E
:100780000210C2F34161401C491CB5FBF0F0490066
:10079000B0FBF1F1084670BD7CB5294E05463068C6
:1007A0000024C10002D500F075F80EE0306840F07A
:1007B00080503060316801F080510091009800F065
:1007C00069F8316821F080513160B0F5007F04D1C3
:1007D000802D0CD9A12D09D304E0802D88BF0324DE
:1007E00005D801D1022402E0702D00D101240F4868
:1007F0000168C90844EAC1010160006800F007000F
:10080000A04201D0012076BD002076BD001002403C
:100810000C000020080000209410024090100240BC
:10082000007000408C809DF9FFFFEEFE002002402A
:10083000F015000800127A000024F40000160008E9
:100840005810024070B50E4E044630780025A0B115
:100850004FF47A710B4AB1FBF0F11068B0FBF1F084
:1008600000F092F848B9102C07D2002221464FF030
:10087000FF3000F06BF8B46000E00125284670BD41
:10088000000000200C00002001484068704700BFB5
:1008900000000020DFF87400006800F4C0607047BA
:1008A00010B5DFF86810B0F5007F086800F4C0608C
:1008B00019D1B0F5007F1FD00868DFF85420DFF8A9
:1008C000544020F4C06040F4007000F017F800E0DD
:1008D000401E4A69530501D50028F9D148694105F0
:1008E0000AD5032010BDB0F5806F05D0086820F44C
:1008F000C06040F480600860002010BD08603220B5
:1009000013684343B3FBF4F0401C70470070004091
:100910000C00002040420F000901020002D42448CC
:1009200081547047234B02F00F021A4402F8041C52
:100930007047214B19684FF6FF020002114000F486
:10094000E06008431D4908431860704770B51A4BB2
:100950001C68C4F302230124C3F10705052D2EBF33
:100960000F2504FA05F56D1E1E1D072E34BF00234A
:10097000DB1E2940994004FA03F3BDE870405B1E7A
:100980001A401143C8E7000010B5401EB0F1807F47
:1009900001D3012010BD0A4C60600F214FF0FF30E1
:1009A000FFF7BAFF0021A16007202060002010BDE2
:1009B00000E400E018ED00E00CED00E00000FA05B6
:1009C00010E000E002206870211D206800F049F965
:1009D00001202873A870E87028716871A871E87107
:1009E00028726872A872E8726870002032BD38B54B
:1009F000040001D1012032BD00F0A8F818B900F0C0
:100A0000A1F800F0F1FADDE770B500F091F809B94E
:100A100002780FE0042908BF42780BD0082908BFEC
:100A2000827807D00C2908BFC27803D010290CBFE8
:100A300002794279012A01D0012070BD11B9022248
:100A4000027014E0042902D1022242700FE008294A
:100A500002D1022282700AE00C2902D10222C27065
:100A600005E0102907BF022202710223437100F042
:100A700044F800F04BF818BF904208D088421FBFDE
:100A8000DFF8B850A842DFF8B860B04201D100F0FA
:100A90001FF824689C4218BFB4F1804F0BD000F0BF
:100AA00024F81CBF1E4B9C4205D000F01BF81CBF55
:100AB00094428C4208D100F010F818BFB1F5803F85
:100AC00004D000F01EF801E000F012F8002070BD24
:100AD000456C45F4004545647047A16816480140DF
:100AE000062970470F48844270470C48844270477B
:100AF000216841F00101216070472068012200F067
:100B00004FBA206840F00100206070472068024B17
:100B1000054A064998427047002C014000040040F5
:100B200000080040000C004000340140004001403B
:100B3000044604F13E0070470700010000440140F4
:100B400000480140002129702046704704F13C050F
:100B50006878704738B500F07EF801D1022032BDC8
:100B6000012084F83C0052B1042A19D0082A29D067
:100B70000C2A38D0102A48D0142A57D067E02068B1
:100B800000F0C5F82168886940F00800886188692C
:100B900020F0040088618A69286902438A6156E06E
:100BA000206800F0F5F82068816941F400618161F6
:100BB000816921F48061816181692A6941EA0221A8
:100BC000816144E0206800F01CF92168C86940F0A8
:100BD0000800C861C86920F00400C861CA692869B2
:100BE0000243CA6133E0206800F043F92068C1691C
:100BF00041F40061C161C16921F48061C161C169D1
:100C00002A6941EA0221C16121E0206800F058F917
:100C10002168486D40F008004865486D20F00400E8
:100C200048654A6D286902434A6510E0206800F073
:100C300071F92068416D41F400614165416D21F415
:100C400080614165416D2A6941EA022141650020C8
:100C500084F83C0032BD04460D4694F83C0001285F
:100C600070472DE9F043DFF80873D0F800C0DFF8D3
:100C70000433DFF80443DFF80453DFF80463DFF8DC
:100C800004E3DFF80483DFF80493B84218BFB0F13F
:100C9000804F07D0484518BF404503D0704518BF66
:100CA000B0420ED14A68B8422CF0700C18BFB0F1B7
:100CB000804F42EA0C0C0CD048451CBF40457045A3
:100CC00007D0B04218BFA84203D0A04218BF984234
:100CD00004D1CA682CF4407C42EA0C0C4A692CF01E
:100CE000800C42EA0C020260B8428A68C26218BFF5
:100CF000B0420A68826204D0A8421CBFA042984257
:100D000001D10969016301224261BDE8F0832DE947
:100D1000F041026ADFF85882DFF864E2DFF85872C7
:100D2000DFF858C2520852000262066A44688569B8
:100D3000DFF85C220B6826F0020615408A6816432D
:100D40001D43404518BF70458A4B04D060451CBF09
:100D5000B84298420DD1CA6826F0080616434045AD
:100D600018BF704526F0040605D0604518BFB8428C
:100D700001D0984205D14B698A6924F440741C4320
:100D8000144344608561496841630662BDE8F081AF
:100D9000F0B5026A22F010020262056A43688469B3
:100DA0007C4A0E6814408A6844EA062425F020052F
:100DB00045EA02156E4E724AB04218BF904208D101
:100DC000CF6825F0800545EA0715B04225F04005BB
:100DD0000AD090421CBF694A904205D0664EB0428C
:100DE0001CBF644A904206D14E698A6923F440636D
:100DF000164343EA86034360846149688163056260
:100E0000F0BDF0B5026A624B22F480720262066A9B
:100E10004468C5690A6826F400761D408B6846EA76
:100E200003261543524B564A984218BF904208D1A8
:100E3000CF6826F4006646EA0726984226F48066C4
:100E40000AD090421CBF4D4A904205D04A4B98426E
:100E50001CBF484A904206D14B698A6924F4405429
:100E6000134344EA03144460C5614968C1630662E0
:100E7000F0BD70B5026A22F480520262036A4468CF
:100E8000C569444A00F06DF823F4005343EA023385
:100E9000B0421CBF3A4A904207D0384EB0421FBF02
:100EA000354A9042334EB04204D14A6924F480441A
:100EB00044EA82144460C56149680164036270BDFC
:100EC00070B5026A344B22F480320262046A4568CB
:100ED000466D0A681E4016438B68254A24F4003488
:100EE00044EA034490421CBF254B984207D0234A52
:100EF00090421FBF204B98421E4A904204D14A693B
:100F000025F4803545EA02254560466549688165D6
:100F1000046270BD70B5026A22F480120262036A34
:100F20004468456D1D4A00F01CF823F4001343EAA1
:100F30000253B0421CBF124A904207D00F4EB0423B
:100F40001FBF0D4A90420B4EB04204D14A6924F4AF
:100F5000802444EA8224446045654968C16503628F
:100F600070BD0E68154045EA06258A68004E704738
:100F7000002C014000480140004401400040014075
:100F800000340140000C0040000800400004004014
:100F90008CFFFEFFFF8CFFFE8FFFFEFFFF8FFFFE2B
:100FA00010B501F01F01036A01248C40A3430362C2
:100FB00002FA01F1036A1943016210BD264881B0AB
:100FC000816841F001018160816801F001010091B7
:100FD0000099026842F080520260006800F0805080
:100FE0000090009801B0704781B000681B498842AA
:100FF00009D11948026842F004020260006800F05A
:1010000004000090009801B0704710B586B0044607
:101010001422002101A800F027F821680F4881421E
:1010200017D10F48016841F0080101604FF4805169
:10103000006800F008000090022200980948019121
:1010400002920021039104910221059101A900F06F
:1010500015F806B010BD000058100240000800400E
:101060004C100240000C004810B5044610460A46D9
:101070000146204600F0F2F8204610BD2DE9F84F59
:101080004FF000096C4A6D4B4FF00F0805460E46B5
:1010900034E06B4CA54214BF072406248C406949F8
:1010A0003C4341F82C40C143146801EA040C7468C5
:1010B000E40348BF40EA0C0CC2F800C0546801EADF
:1010C000040C7468A40348BF40EA0C0CC2F804C0C6
:1010D000946801EA040C7468E40248BF40EA0C0C0E
:1010E000C2F808C0D46801EA040C7168890248BFDC
:1010F00040EA0C0CC2F80CC009F10109316831FA60
:1011000009F000F09780012404FA09F414EA0100C0
:10111000F2D04FEA490C032101FA0CF16FEA010EFB
:101120007168E443012918BF022903D0112918BFAF
:10113000122910D1A968F7680EEA010107FA0CF725
:101140003943A96069687768C7F30017214007FA37
:1011500009F739436960716801F00307032F07D16C
:10116000EF6AC1F3C0013C4001FA09F10C43EC62A3
:10117000E968B4680EEA010104FA0CF42143E9605D
:101180004FEA89017468022C18BF122C12D14FEA61
:10119000D90405EB840401F01C07D4F820A008FA58
:1011A00007FB2AEA0B0AD6F810B00BFA07F747EA52
:1011B0000A0727622C680EEA0407347904F0030456
:1011C00004FA0CF43C432C607468E40094D51C6869
:1011D00044F001041C604FEA990C1C6804F00104FF
:1011E000009401F00C01009C164C54F82C4008FAB5
:1011F00001F724EA0707B5F1904F08BF002418D083
:10120000114CA54208BF012413D0104CA54208BFC1
:1012100002240ED00E4CA54208BF032409D00D4C69
:10122000A54208BF042404D00B4CA5427FF431AF83
:10123000052433E7BDE8F18F00040140601002404F
:101240000018004808000140000400480008004859
:10125000000C0048001000480014004862F30F2200
:1012600062F31F42401810F0030308D0C91A1FD3BD
:10127000DB0748BF00F8012D28BF20F8022D13001E
:1012800030B414461546103928BF20E93C00FAD87E
:10129000490728BF20E90C0048BF40F8042D890009
:1012A00028BF20F8022D48BF00F8012D30BC704740
:1012B000C91818BF00F8012DCB0728BF00F8012D71
:1012C000704730B4002513E050F8042BD30744BF17
:1012D000A9F101039A18091F042942F8045BFAD204
:1012E00013468C0744BF15809B1CC90748BF1D705F
:1012F00050F8041B0029E7D130BC704770B58AB0A4
:1013000000F0CCF800F077F800F0A7F85F48604EE6
:10131000016841F0010101600024026802F001024D
:10132000059201250599026842F0020202600368F5
:1013300003F0020305930599026842F00802026077
:101340002021006800F00800059002220598009115
:10135000019202940394049569464FF09040FFF780
:101360008DFE4FF480400221009001910E220492E4
:101370000294039469464748FFF780FE0C2200F070
:101380006DF81C22002103A8FFF76EFE4248306072
:1013900040F2CF7140F69F70F0607160B4603461CC
:1013A000B4613046FFF723FB00940294694630464F
:1013B00000F09AF8602103910022049205920792AE
:1013C00003A93046FFF7C6FB3046FFF71EFE00219B
:1013D0003046FFF719FB642000F0D0F82CB1B4F5CB
:1013E000FA6F03D16FF0630500E064252C19A0B2F9
:1013F00000F038F8EFE780B596B04422002105A848
:10140000FFF732FE00F029F801210B910022602144
:101410000D910C92012110911191022228210F921D
:101420001291102005900722022113921491159118
:1014300005A8FEF7A9FE0F200321009001910022CC
:1014400002920392049204216846FFF7D2F84FF407
:101450000070FFF725FA17B000BD1422002168467E
:10146000FFF702BE18B587B06022009201900022FB
:10147000029204926946064C2046FFF76BFB00215E
:101480002046FFF7C1FA08B010BD00004C10024022
:10149000100000200004004800080040032010B5A0
:1014A000FFF747FA0020FFF7CDF90024002814BF0A
:1014B0000124FFF783FD204610BD30B40EE0026822
:1014C000436802440830DC0744BFA9F10104E31873
:1014D00052F8045B43F8045B091FF9D150F8041B70
:1014E0000029ECD130BC7047F0B500F13C04227803
:1014F000012A01D10220F0BD012222700223637073
:101500000668DFF868E07768DFF864C0B56876459C
:1015100018BF664503D14B6827F470071F430A685C
:1015200027F07007174377600268724518BFB2F161
:10153000804F0CD00C4882421CBF0E4B9A4206D002
:10154000084882421EBF62450B4B9A4204D188680C
:1015500025F0800505439560012161700020207011
:10156000F0BD0000000C004000040040002C0140D1
:1015700000340140000800400040014038B50446F6
:10158000FFF782F914F1010F054602D004480178F3
:101590006418FFF779F9401BA042FAD331BD00BFB0
:1015A000000000200E48016841F470010160002233
:1015B0000C49086840F0010008608A604FF48052CE
:1015C0000B68094803400B60CA6000200B68074A9B
:1015D00023F480230B6088614FF000611160704735
:1015E00088ED00E000100240FFFFF6EA08ED00E0A1
:1015F00000000000000000000102030406070809C3
:10160000A0860100400D0300801A060000350C0082
:1016100040420F0080841E0000093D0000127A0045
:101620000024F40000366E010048E801006CDC0282
:1016300010B5074979441831064C7C44163404E04F
:101640000A68081D114488470146A142F8D110BD1F
:101650002C0000004C0000004EF68851CEF2000134
:10166000086840F470000860BFF34F8FBFF36F8FBE
:101670004FF00070E1EE100A7047000047FCFFFFDA
:101680004C00000010000020000000002FFEFFFFB3
:101690001000000088000000000000200000000092
:1016A00000F00DF8002801D0FFF7C2FFAFF3008073
:1016B0000020AFF30080FFF721FE00F002F80120C8
:1016C000704700F001B800000746384600F002F805
:1016D000FBE7000080B5AFF30080024A110018203C
:1016E000ABBEFBE7260002007047FEE7FEE7FEE721
:1016F000FEE770477047704700F000B80248416845
:1017000002788A1842607047000000200148804734
:1017100001480047A51500082D170008010000002A
:10172000000000001000000000093D00AFF3008041
:10173000FFF792FFFFF7B4FFFFF7FEBFFFF7FEBF13
:10174000FFF7FEBFFFF7FEBFFFF7FEBFFFF7FEBFCD
:10175000FFF7FEBFFFF7FEBFFFF7FEBFFFF7FEBFBD
:10176000FFF7FEBFFFF7FEBFFFF7FEBFFFF7FEBFAD
:10177000FFF7FEBFFFF7FEBFFFF7FEBFFFF7FEBF9D
:10178000FFF7FEBFFFF7FEBFFFF7FEBFFFF7FEBF8D
:10179000FFF7FEBFFFF7FEBFFFF7FEBFFFF7FEBF7D
:1017A000FFF7FEBFFFF7FEBFFFF7FEBFFFF7FEBF6D
:1017B000FFF7FEBFFFF7FEBFFFF7FEBFFFF7FEBF5D
:1017C000FFF7FEBFFFF7FEBFFFF7FEBFFFF7FEBF4D
:1017D000FFF7FEBFFFF7FEBFFFF7FEBFFFF7FEBF3D
:1017E000FFF7FEBFFFF7FEBFFFF7FEBFFFF7FEBF2D
:1017F000FFF7FEBFFFF7FEBFFFF7FEBFFFF7FEBF1D
:10180000FFF7FEBFFFF7FEBFFFF7FEBFFFF7FEBF0C
:10181000FFF7FEBFFFF7FEBFFFF7FEBFFFF7FEBFFC
:10182000FFF7FEBFFFF7FEBFFFF7FEBFFFF7FEBFEC
:10183000FFF7FEBFFFF7FEBFFFF7FEBFFFF7FEBFDC
:10184000FFF7FEBFFFF7FEBFFFF7FEBFFFF7FEBFCC
:10185000FFF7FEBFFFF7FEBFFFF7FEBFFFF7FEBFBC
:10186000FFF7FEBFFFF7FEBFFFF7FEBFFFF7FEBFAC
:08187000FFF7FEBFFFF7FEBF0A
:040000050800172DAB
:00000001FF
